{
  "_format": "hh-sol-artifact-1",
  "contractName": "ZkLightClient",
  "sourceName": "contracts/ZkLightClient.sol",
  "abi": [
    {
      "inputs": [
        {
          "internalType": "address",
          "name": "_owner",
          "type": "address"
        },
        {
          "internalType": "address",
          "name": "_spvAddress",
          "type": "address"
        },
        {
          "internalType": "address",
          "name": "_dataManager",
          "type": "address"
        }
      ],
      "stateMutability": "nonpayable",
      "type": "constructor"
    },
    {
      "inputs": [
        {
          "internalType": "address",
          "name": "owner",
          "type": "address"
        }
      ],
      "name": "OwnableInvalidOwner",
      "type": "error"
    },
    {
      "inputs": [
        {
          "internalType": "address",
          "name": "account",
          "type": "address"
        }
      ],
      "name": "OwnableUnauthorizedAccount",
      "type": "error"
    },
    {
      "anonymous": false,
      "inputs": [
        {
          "indexed": true,
          "internalType": "address",
          "name": "previousOwner",
          "type": "address"
        },
        {
          "indexed": true,
          "internalType": "address",
          "name": "newOwner",
          "type": "address"
        }
      ],
      "name": "OwnershipTransferred",
      "type": "event"
    },
    {
      "anonymous": false,
      "inputs": [
        {
          "indexed": true,
          "internalType": "bytes32",
          "name": "txHash",
          "type": "bytes32"
        },
        {
          "indexed": true,
          "internalType": "address",
          "name": "user",
          "type": "address"
        },
        {
          "indexed": false,
          "internalType": "bool",
          "name": "isSuccessful",
          "type": "bool"
        }
      ],
      "name": "QueryInitiated",
      "type": "event"
    },
    {
      "anonymous": false,
      "inputs": [
        {
          "indexed": true,
          "internalType": "bytes32",
          "name": "txHash",
          "type": "bytes32"
        },
        {
          "indexed": true,
          "internalType": "address",
          "name": "user",
          "type": "address"
        },
        {
          "indexed": false,
          "internalType": "bool",
          "name": "isSuccessful",
          "type": "bool"
        }
      ],
      "name": "QueryVerified",
      "type": "event"
    },
    {
      "anonymous": false,
      "inputs": [
        {
          "indexed": true,
          "internalType": "bytes32",
          "name": "txHash",
          "type": "bytes32"
        },
        {
          "indexed": true,
          "internalType": "address",
          "name": "user",
          "type": "address"
        }
      ],
      "name": "QueryWithdrawn",
      "type": "event"
    },
    {
      "inputs": [],
      "name": "LOCK_AMOUNT",
      "outputs": [
        {
          "internalType": "uint256",
          "name": "",
          "type": "uint256"
        }
      ],
      "stateMutability": "view",
      "type": "function"
    },
    {
      "inputs": [],
      "name": "TIMEOUT",
      "outputs": [
        {
          "internalType": "uint256",
          "name": "",
          "type": "uint256"
        }
      ],
      "stateMutability": "view",
      "type": "function"
    },
    {
      "inputs": [],
      "name": "dataManager",
      "outputs": [
        {
          "internalType": "address",
          "name": "",
          "type": "address"
        }
      ],
      "stateMutability": "view",
      "type": "function"
    },
    {
      "inputs": [
        {
          "internalType": "bytes",
          "name": "rawTxData",
          "type": "bytes"
        },
        {
          "internalType": "bytes32",
          "name": "txHash",
          "type": "bytes32"
        }
      ],
      "name": "decodeTxRawData",
      "outputs": [
        {
          "components": [
            {
              "internalType": "bool",
              "name": "receipt_status",
              "type": "bool"
            },
            {
              "components": [
                {
                  "internalType": "uint256",
                  "name": "chainId",
                  "type": "uint256"
                },
                {
                  "internalType": "uint256",
                  "name": "nonce",
                  "type": "uint256"
                },
                {
                  "internalType": "uint256",
                  "name": "maxPriorityFeePerGas",
                  "type": "uint256"
                },
                {
                  "internalType": "uint256",
                  "name": "maxFeePerGas",
                  "type": "uint256"
                },
                {
                  "internalType": "uint256",
                  "name": "gasLimit",
                  "type": "uint256"
                },
                {
                  "internalType": "address",
                  "name": "to",
                  "type": "address"
                },
                {
                  "internalType": "uint256",
                  "name": "value",
                  "type": "uint256"
                },
                {
                  "internalType": "bytes",
                  "name": "data",
                  "type": "bytes"
                },
                {
                  "components": [
                    {
                      "internalType": "uint256",
                      "name": "len",
                      "type": "uint256"
                    },
                    {
                      "internalType": "uint256",
                      "name": "memPtr",
                      "type": "uint256"
                    }
                  ],
                  "internalType": "struct RLPReader.RLPItem[]",
                  "name": "accessList",
                  "type": "tuple[]"
                },
                {
                  "internalType": "uint8",
                  "name": "v",
                  "type": "uint8"
                },
                {
                  "internalType": "bytes32",
                  "name": "r",
                  "type": "bytes32"
                },
                {
                  "internalType": "bytes32",
                  "name": "s",
                  "type": "bytes32"
                }
              ],
              "internalType": "struct ZkLightClient.EIP1559Transaction",
              "name": "tx_fields",
              "type": "tuple"
            }
          ],
          "internalType": "struct ZkLightClient.TxResult",
          "name": "",
          "type": "tuple"
        }
      ],
      "stateMutability": "view",
      "type": "function"
    },
    {
      "inputs": [
        {
          "internalType": "bytes32",
          "name": "txHash",
          "type": "bytes32"
        }
      ],
      "name": "getQueryStatus",
      "outputs": [
        {
          "internalType": "address",
          "name": "user",
          "type": "address"
        },
        {
          "internalType": "uint256",
          "name": "timestamp",
          "type": "uint256"
        },
        {
          "internalType": "bool",
          "name": "isSuccessful",
          "type": "bool"
        },
        {
          "internalType": "bool",
          "name": "receiptStatus",
          "type": "bool"
        }
      ],
      "stateMutability": "view",
      "type": "function"
    },
    {
      "inputs": [
        {
          "internalType": "bytes32",
          "name": "txHash",
          "type": "bytes32"
        }
      ],
      "name": "initiateQuery",
      "outputs": [],
      "stateMutability": "payable",
      "type": "function"
    },
    {
      "inputs": [],
      "name": "owner",
      "outputs": [
        {
          "internalType": "address",
          "name": "",
          "type": "address"
        }
      ],
      "stateMutability": "view",
      "type": "function"
    },
    {
      "inputs": [
        {
          "internalType": "bytes32",
          "name": "",
          "type": "bytes32"
        }
      ],
      "name": "queries",
      "outputs": [
        {
          "internalType": "address",
          "name": "user",
          "type": "address"
        },
        {
          "internalType": "uint256",
          "name": "timestamp",
          "type": "uint256"
        },
        {
          "internalType": "bool",
          "name": "isSuccessful",
          "type": "bool"
        },
        {
          "internalType": "bool",
          "name": "receiptStatus",
          "type": "bool"
        }
      ],
      "stateMutability": "view",
      "type": "function"
    },
    {
      "inputs": [],
      "name": "renounceOwnership",
      "outputs": [],
      "stateMutability": "nonpayable",
      "type": "function"
    },
    {
      "inputs": [
        {
          "internalType": "address",
          "name": "_dataManager",
          "type": "address"
        }
      ],
      "name": "setManager",
      "outputs": [],
      "stateMutability": "nonpayable",
      "type": "function"
    },
    {
      "inputs": [
        {
          "internalType": "address",
          "name": "_spvAddress",
          "type": "address"
        }
      ],
      "name": "setSpvAddress",
      "outputs": [],
      "stateMutability": "nonpayable",
      "type": "function"
    },
    {
      "inputs": [],
      "name": "spvAddress",
      "outputs": [
        {
          "internalType": "address",
          "name": "",
          "type": "address"
        }
      ],
      "stateMutability": "view",
      "type": "function"
    },
    {
      "inputs": [
        {
          "internalType": "address",
          "name": "newOwner",
          "type": "address"
        }
      ],
      "name": "transferOwnership",
      "outputs": [],
      "stateMutability": "nonpayable",
      "type": "function"
    },
    {
      "inputs": [
        {
          "internalType": "bytes32",
          "name": "txHash",
          "type": "bytes32"
        },
        {
          "internalType": "bytes",
          "name": "proof",
          "type": "bytes"
        }
      ],
      "name": "verifyQuery",
      "outputs": [],
      "stateMutability": "nonpayable",
      "type": "function"
    },
    {
      "inputs": [
        {
          "internalType": "bytes32",
          "name": "txHash",
          "type": "bytes32"
        }
      ],
      "name": "withdrawQuery",
      "outputs": [],
      "stateMutability": "nonpayable",
      "type": "function"
    }
  ],
  "bytecode": "0x60806040523480156200001157600080fd5b5060405162001dce38038062001dce833981016040819052620000349162000110565b826001600160a01b0381166200006457604051631e4fbdf760e01b81526000600482015260240160405180910390fd5b6200006f81620000a3565b50600280546001600160a01b039384166001600160a01b03199182161790915560038054929093169116179055506200015a565b600080546001600160a01b038381166001600160a01b0319831681178455604051919092169283917f8be0079c531659141344cd1fd0a4f28419497f9722a3daafe3b4186f6b6457e09190a35050565b80516001600160a01b03811681146200010b57600080fd5b919050565b6000806000606084860312156200012657600080fd5b6200013184620000f3565b92506200014160208501620000f3565b91506200015160408501620000f3565b90509250925092565b611c64806200016a6000396000f3fe6080604052600436106100e85760003560e01c80639f4bddc81161008a578063dc6ee4be11610059578063dc6ee4be146102c0578063f2fde38b14610316578063f56f48f214610336578063f6861e331461034d57600080fd5b80639f4bddc81461024d578063b516cbd11461026d578063c6067aa61461028d578063d0ebdbe7146102a057600080fd5b8063715018a6116100c6578063715018a6146101d15780637dc21de3146101e65780638a4d3fa8146102065780638da5cb5b1461022f57600080fd5b806321dfb600146100ed57806332c8d35a146101775780634f73b30214610199575b600080fd5b3480156100f957600080fd5b506101406101083660046116a5565b60016020819052600091825260409091208054918101546002909101546001600160a01b039092169160ff8082169161010090041684565b604080516001600160a01b039095168552602085019390935290151591830191909152151560608201526080015b60405180910390f35b34801561018357600080fd5b506101976101923660046116be565b61037a565b005b3480156101a557600080fd5b506003546101b9906001600160a01b031681565b6040516001600160a01b03909116815260200161016e565b3480156101dd57600080fd5b506101976103a4565b3480156101f257600080fd5b506002546101b9906001600160a01b031681565b34801561021257600080fd5b5061022166b1a2bc2ec5000081565b60405190815260200161016e565b34801561023b57600080fd5b506000546001600160a01b03166101b9565b34801561025957600080fd5b506101976102683660046116e7565b6103b8565b34801561027957600080fd5b506101976102883660046116a5565b610827565b61019761029b3660046116a5565b6109bf565b3480156102ac57600080fd5b506101976102bb3660046116be565b610c2c565b3480156102cc57600080fd5b506101406102db3660046116a5565b60009081526001602081905260409091208054918101546002909101546001600160a01b0390921692909160ff808216926101009092041690565b34801561032257600080fd5b506101976103313660046116be565b610c56565b34801561034257600080fd5b506102216201518081565b34801561035957600080fd5b5061036d6103683660046117aa565b610cad565b60405161016e91906118d1565b61038261100f565b600280546001600160a01b0319166001600160a01b0392909216919091179055565b6103ac61100f565b6103b66000611055565b565b600083815260016020526040902080546001600160a01b0316158015906103e45750600281015460ff16155b6104465760405162461bcd60e51b815260206004820152602860248201527f5175657279206e6f6e2d6578697374656e74206f7220616c726561647920737560448201526718d8d95cdcd99d5b60c21b60648201526084015b60405180910390fd5b6002546040517f010082fd0000000000000000000000000000000000000000000000000000000081526001600160a01b0390911690819063010082fd9061049390879087906004016119bc565b6020604051808303816000875af11580156104b2573d6000803e3d6000fd5b505050506040513d601f19601f820116820180604052508101906104d691906119eb565b6105225760405162461bcd60e51b815260206004820152601360248201527f566572696669636174696f6e206661696c656400000000000000000000000000604482015260640161043d565b6040517f35211a810000000000000000000000000000000000000000000000000000000081526000906001600160a01b038316906335211a819061056c90889088906004016119bc565b60a0604051808303816000875af115801561058b573d6000803e3d6000fd5b505050506040513d601f19601f820116820180604052508101906105af9190611a0d565b60035460608201516040517f7692e52400000000000000000000000000000000000000000000000000000000815260048101919091529192506001600160a01b0316908190637692e52490602401602060405180830381865afa15801561061a573d6000803e3d6000fd5b505050506040513d601f19601f8201168201806040525081019061063e9190611a7d565b60000361068d5760405162461bcd60e51b815260206004820152601360248201527f496e76616c6964204d65726b6c6520726f6f7400000000000000000000000000604482015260640161043d565b816040015182602001511461070a5760405162461bcd60e51b815260206004820152603b60248201527f436f6d6d697420626c6f636b206861736820646f6573206e6f74206d6174636860448201527f2074617267657420626c6f636b206861736820696e2062617463680000000000606482015260840161043d565b815187146107805760405162461bcd60e51b815260206004820152603b60248201527f5478204861736820696e2070726f6f66207075626c6963206461746120646f6560448201527f73206e6f74206d617463682074617267657420747820486173682e0000000000606482015260840161043d565b600284018054608084015115156101000261ffff1990911617600117905583546040516001600160a01b039091169060009066b1a2bc2ec500009082818181858883f193505050501580156107d9573d6000803e3d6000fd5b508354604051600181526001600160a01b039091169088907f339524254eb3b94f788845be1acab7e95a0f4722135a10c74447a29e4af8faaf9060200160405180910390a350505050505050565b600081815260016020526040902080546001600160a01b031633146108b45760405162461bcd60e51b815260206004820152602560248201527f4f6e6c792074686520717565727920696e69746961746f722063616e2077697460448201527f6864726177000000000000000000000000000000000000000000000000000000606482015260840161043d565b600281015460ff161561092f5760405162461bcd60e51b815260206004820152602260248201527f43616e6e6f742077697468647261772061207375636365737366756c2071756560448201527f7279000000000000000000000000000000000000000000000000000000000000606482015260840161043d565b600082815260016020819052604080832080546001600160a01b03191681559182018390556002909101805461ffff191690555133919066b1a2bc2ec500009082818181858883f1935050505015801561098d573d6000803e3d6000fd5b50604051339083907fbf6bc1f2e5f1127033e8a66b214e4d4cdb1b5ebc76931194ab345ffbb586d64b90600090a35050565b66b1a2bc2ec500003414610a3b5760405162461bcd60e51b815260206004820152602360248201527f496e636f727265637420616d6f756e743a20302e30352045544820726571756960448201527f7265640000000000000000000000000000000000000000000000000000000000606482015260840161043d565b600081815260016020526040902080546001600160a01b031615610b7157600281015460ff1615610ad35760405162461bcd60e51b8152602060048201526024808201527f517565727920616c726561647920636f6d706c6574656420737563636573736660448201527f756c6c7900000000000000000000000000000000000000000000000000000000606482015260840161043d565b620151808160010154610ae69190611aac565b4211610b345760405162461bcd60e51b815260206004820152601760248201527f5175657279206e6f74207965742074696d6564206f7574000000000000000000604482015260640161043d565b80546040516001600160a01b039091169060009066b1a2bc2ec500009082818181858883f19350505050158015610b6f573d6000803e3d6000fd5b505b60408051608081018252338082524260208084019182526000848601818152606086018281528983526001808552888420975188546001600160a01b0319166001600160a01b039091161788559451948701949094555160029095018054935161ffff1990941695151561ff00191695909517610100931515939093029290921790935592519283529184917ffc56e11506c01869333a51a721ce51f1b28b9d4cc92e2af3b167c0dbc858ca09910160405180910390a35050565b610c3461100f565b600380546001600160a01b0319166001600160a01b0392909216919091179055565b610c5e61100f565b6001600160a01b038116610ca1576040517f1e4fbdf70000000000000000000000000000000000000000000000000000000081526000600482015260240161043d565b610caa81611055565b50565b610cb5611616565b600082815260016020526040902080546001600160a01b031615801590610ce05750600281015460ff165b610d3d5760405162461bcd60e51b815260206004820152602860248201527f5175657279206e6f6e2d6578697374656e74206f72206e6f742079657420737560448201526718d8d95cdcd99d5b60c21b606482015260840161043d565b83516020850120838114610db95760405162461bcd60e51b815260206004820152602560248201527f436f6d7075746564204861736820646f6573206e6f74206d617463682074782060448201527f486173682e000000000000000000000000000000000000000000000000000000606482015260840161043d565b6000610dd3866001808951610dce9190611abf565b6110a5565b90506000610e10610e0b8360408051808201825260008082526020918201528151808301909252825182529182019181019190915290565b611172565b90506000604051806101800160405280610e4384600081518110610e3657610e36611ad2565b602002602001015161127e565b8152602001610e5e84600181518110610e3657610e36611ad2565b8152602001610e7984600281518110610e3657610e36611ad2565b8152602001610e9484600381518110610e3657610e36611ad2565b8152602001610eaf84600481518110610e3657610e36611ad2565b8152602001610ed784600581518110610eca57610eca611ad2565b60200260200101516112cc565b6001600160a01b03168152602001610efb84600681518110610e3657610e36611ad2565b8152602001610f2384600781518110610f1657610f16611ad2565b60200260200101516112e6565b8152602001610f4b84600881518110610f3e57610f3e611ad2565b6020026020010151611172565b815260006020820181905260408201819052606090910152825190915060091015610fe057610f8682600981518110610e3657610e36611ad2565b60ff166101208201528151610fa8908390600a908110610f1657610f16611ad2565b610fb190611ae8565b6101408201528151610fd0908390600b908110610f1657610f16611ad2565b610fd990611ae8565b6101608201525b6040805180820190915260029095015460ff610100909104161515855260208501525091925050505b92915050565b6000546001600160a01b031633146103b6576040517f118cdaa700000000000000000000000000000000000000000000000000000000815233600482015260240161043d565b600080546001600160a01b038381166001600160a01b0319831681178455604051919092169283917f8be0079c531659141344cd1fd0a4f28419497f9722a3daafe3b4186f6b6457e09190a35050565b606060008267ffffffffffffffff8111156110c2576110c2611763565b6040519080825280601f01601f1916602001820160405280156110ec576020820181803683370190505b50905060005b8381101561116957856111058683611aac565b8151811061111557611115611ad2565b602001015160f81c60f81b82828151811061113257611132611ad2565b60200101907effffffffffffffffffffffffffffffffffffffffffffffffffffffffffffff1916908160001a9053506001016110f2565b50949350505050565b606061117d8261135b565b61118657600080fd5b600061119183611396565b905060008167ffffffffffffffff8111156111ae576111ae611763565b6040519080825280602002602001820160405280156111f357816020015b60408051808201909152600080825260208201528152602001906001900390816111cc5790505b5090506000611205856020015161141b565b85602001516112149190611aac565b90506000805b848110156112735761122b836114a3565b915060405180604001604052808381526020018481525084828151811061125457611254611ad2565b60209081029190910101526112698284611aac565b925060010161121a565b509195945050505050565b80516000901580159061129357508151602110155b61129c57600080fd5b6000806112a88461154c565b8151919350915060208210156112c45760208290036101000a90045b949350505050565b80516000906015146112dd57600080fd5b6110098261127e565b80516060906112f457600080fd5b6000806113008461154c565b9150915060008167ffffffffffffffff81111561131f5761131f611763565b6040519080825280601f01601f191660200182016040528015611349576020820181803683370190505b50905060208101611169848285611593565b8051600090810361136e57506000919050565b6020820151805160001a9060c082101561138c575060009392505050565b5060019392505050565b805160009081036113a957506000919050565b6000806113b9846020015161141b565b84602001516113c89190611aac565b90506000846000015185602001516113e09190611aac565b90505b80821015611412576113f4826114a3565b6113fe9083611aac565b91508261140a81611b0c565b9350506113e3565b50909392505050565b8051600090811a60808110156114345750600092915050565b60b881108061144f575060c0811080159061144f575060f881105b1561145d5750600192915050565b60c081101561149157611472600160b8611b25565b61147f9060ff1682611abf565b61148a906001611aac565b9392505050565b611472600160f8611b25565b50919050565b80516000908190811a60808110156114be5760019150611545565b60b88110156114e4576114d2608082611abf565b6114dd906001611aac565b9150611545565b60c08110156115115760b78103600185019450806020036101000a85510460018201810193505050611545565b60f8811015611525576114d260c082611abf565b60f78103600185019450806020036101000a855104600182018101935050505b5092915050565b600080600061155e846020015161141b565b905060008185602001516115729190611aac565b905060008286600001516115869190611abf565b9196919550909350505050565b806000036115a057505050565b602081106115d857825182526115b7602084611aac565b92506115c4602083611aac565b91506115d1602082611abf565b90506115a0565b801561161157600060016115ed836020611abf565b6115f990610100611c22565b6116039190611abf565b845184518216911916178352505b505050565b60405180604001604052806000151581526020016116a0604051806101800160405280600081526020016000815260200160008152602001600081526020016000815260200160006001600160a01b03168152602001600081526020016060815260200160608152602001600060ff16815260200160008019168152602001600080191681525090565b905290565b6000602082840312156116b757600080fd5b5035919050565b6000602082840312156116d057600080fd5b81356001600160a01b038116811461148a57600080fd5b6000806000604084860312156116fc57600080fd5b83359250602084013567ffffffffffffffff8082111561171b57600080fd5b818601915086601f83011261172f57600080fd5b81358181111561173e57600080fd5b87602082850101111561175057600080fd5b6020830194508093505050509250925092565b634e487b7160e01b600052604160045260246000fd5b604051601f8201601f1916810167ffffffffffffffff811182821017156117a2576117a2611763565b604052919050565b600080604083850312156117bd57600080fd5b823567ffffffffffffffff808211156117d557600080fd5b818501915085601f8301126117e957600080fd5b81356020828211156117fd576117fd611763565b61180f601f8301601f19168201611779565b9250818352878183860101111561182557600080fd5b8181850182850137600091830181019190915290969401359450505050565b6000815180845260005b8181101561186a5760208185018101518683018201520161184e565b506000602082860101526020601f19601f83011685010191505092915050565b60008151808452602080850194506020840160005b838110156118c657815180518852830151838801526040909601959082019060010161189f565b509495945050505050565b60208152815115156020820152600060208301516040808401528051606084015260208101516080840152604081015160a0840152606081015160c0840152608081015160e084015260a0810151610100611936818601836001600160a01b03169052565b60c08301519150610120828187015260e0840151925061018061014081818901526119656101e0890186611844565b9450838601519350610160605f1989870301818a0152611985868661188a565b955083870151945061199b838a018660ff169052565b908601516101a0890152909401516101c09096019590955250949350505050565b60208152816020820152818360408301376000818301604090810191909152601f909201601f19160101919050565b6000602082840312156119fd57600080fd5b8151801515811461148a57600080fd5b600060a08284031215611a1f57600080fd5b60405160a0810181811067ffffffffffffffff82111715611a4257611a42611763565b806040525082518152602083015160208201526040830151604082015260608301516060820152608083015160808201528091505092915050565b600060208284031215611a8f57600080fd5b5051919050565b634e487b7160e01b600052601160045260246000fd5b8082018082111561100957611009611a96565b8181038181111561100957611009611a96565b634e487b7160e01b600052603260045260246000fd5b8051602080830151919081101561149d5760001960209190910360031b1b16919050565b600060018201611b1e57611b1e611a96565b5060010190565b60ff828116828216039081111561100957611009611a96565b600181815b80851115611b79578160001904821115611b5f57611b5f611a96565b80851615611b6c57918102915b93841c9390800290611b43565b509250929050565b600082611b9057506001611009565b81611b9d57506000611009565b8160018114611bb35760028114611bbd57611bd9565b6001915050611009565b60ff841115611bce57611bce611a96565b50506001821b611009565b5060208310610133831016604e8410600b8410161715611bfc575081810a611009565b611c068383611b3e565b8060001904821115611c1a57611c1a611a96565b029392505050565b600061148a8383611b8156fea26469706673582212202f6091f94d3373de4683998cc6d56a6b5dd266aa966b18df282933613f515d3e64736f6c63430008180033",
  "linkReferences": {},
  "deployedLinkReferences": {}
}