{
  "_format": "hh-sol-artifact-1",
  "contractName": "ZkLightClient",
  "sourceName": "contracts/ZkLightClient.sol",
  "abi": [
    {
      "inputs": [
        {
          "internalType": "address",
          "name": "_owner",
          "type": "address"
        },
        {
          "internalType": "address",
          "name": "_spvAddress",
          "type": "address"
        },
        {
          "internalType": "address",
          "name": "_manager",
          "type": "address"
        }
      ],
      "stateMutability": "nonpayable",
      "type": "constructor"
    },
    {
      "inputs": [
        {
          "internalType": "address",
          "name": "owner",
          "type": "address"
        }
      ],
      "name": "OwnableInvalidOwner",
      "type": "error"
    },
    {
      "inputs": [
        {
          "internalType": "address",
          "name": "account",
          "type": "address"
        }
      ],
      "name": "OwnableUnauthorizedAccount",
      "type": "error"
    },
    {
      "anonymous": false,
      "inputs": [
        {
          "indexed": true,
          "internalType": "address",
          "name": "previousOwner",
          "type": "address"
        },
        {
          "indexed": true,
          "internalType": "address",
          "name": "newOwner",
          "type": "address"
        }
      ],
      "name": "OwnershipTransferred",
      "type": "event"
    },
    {
      "anonymous": false,
      "inputs": [
        {
          "indexed": true,
          "internalType": "bytes32",
          "name": "txHash",
          "type": "bytes32"
        },
        {
          "indexed": true,
          "internalType": "address",
          "name": "user",
          "type": "address"
        },
        {
          "indexed": false,
          "internalType": "bool",
          "name": "isSuccessful",
          "type": "bool"
        }
      ],
      "name": "QueryInitiated",
      "type": "event"
    },
    {
      "anonymous": false,
      "inputs": [
        {
          "indexed": true,
          "internalType": "bytes32",
          "name": "txHash",
          "type": "bytes32"
        },
        {
          "indexed": true,
          "internalType": "address",
          "name": "user",
          "type": "address"
        },
        {
          "indexed": false,
          "internalType": "bool",
          "name": "isSuccessful",
          "type": "bool"
        }
      ],
      "name": "QueryVerified",
      "type": "event"
    },
    {
      "anonymous": false,
      "inputs": [
        {
          "indexed": true,
          "internalType": "bytes32",
          "name": "txHash",
          "type": "bytes32"
        },
        {
          "indexed": true,
          "internalType": "address",
          "name": "user",
          "type": "address"
        }
      ],
      "name": "QueryWithdrawn",
      "type": "event"
    },
    {
      "inputs": [],
      "name": "LOCK_AMOUNT",
      "outputs": [
        {
          "internalType": "uint256",
          "name": "",
          "type": "uint256"
        }
      ],
      "stateMutability": "view",
      "type": "function"
    },
    {
      "inputs": [],
      "name": "TIMEOUT",
      "outputs": [
        {
          "internalType": "uint256",
          "name": "",
          "type": "uint256"
        }
      ],
      "stateMutability": "view",
      "type": "function"
    },
    {
      "inputs": [
        {
          "internalType": "bytes32",
          "name": "txHash",
          "type": "bytes32"
        }
      ],
      "name": "getQueryStatus",
      "outputs": [
        {
          "internalType": "address",
          "name": "user",
          "type": "address"
        },
        {
          "internalType": "uint256",
          "name": "timestamp",
          "type": "uint256"
        },
        {
          "internalType": "bool",
          "name": "isSuccessful",
          "type": "bool"
        }
      ],
      "stateMutability": "view",
      "type": "function"
    },
    {
      "inputs": [
        {
          "internalType": "bytes32",
          "name": "txHash",
          "type": "bytes32"
        }
      ],
      "name": "initiateQuery",
      "outputs": [],
      "stateMutability": "payable",
      "type": "function"
    },
    {
      "inputs": [],
      "name": "manager",
      "outputs": [
        {
          "internalType": "address",
          "name": "",
          "type": "address"
        }
      ],
      "stateMutability": "view",
      "type": "function"
    },
    {
      "inputs": [],
      "name": "owner",
      "outputs": [
        {
          "internalType": "address",
          "name": "",
          "type": "address"
        }
      ],
      "stateMutability": "view",
      "type": "function"
    },
    {
      "inputs": [
        {
          "internalType": "bytes32",
          "name": "",
          "type": "bytes32"
        }
      ],
      "name": "queries",
      "outputs": [
        {
          "internalType": "address",
          "name": "user",
          "type": "address"
        },
        {
          "internalType": "uint256",
          "name": "timestamp",
          "type": "uint256"
        },
        {
          "internalType": "bool",
          "name": "isSuccessful",
          "type": "bool"
        }
      ],
      "stateMutability": "view",
      "type": "function"
    },
    {
      "inputs": [],
      "name": "renounceOwnership",
      "outputs": [],
      "stateMutability": "nonpayable",
      "type": "function"
    },
    {
      "inputs": [
        {
          "internalType": "address",
          "name": "_manager",
          "type": "address"
        }
      ],
      "name": "setManager",
      "outputs": [],
      "stateMutability": "nonpayable",
      "type": "function"
    },
    {
      "inputs": [
        {
          "internalType": "address",
          "name": "_spvAddress",
          "type": "address"
        }
      ],
      "name": "setSpvAddress",
      "outputs": [],
      "stateMutability": "nonpayable",
      "type": "function"
    },
    {
      "inputs": [],
      "name": "spvAddress",
      "outputs": [
        {
          "internalType": "address",
          "name": "",
          "type": "address"
        }
      ],
      "stateMutability": "view",
      "type": "function"
    },
    {
      "inputs": [
        {
          "internalType": "address",
          "name": "newOwner",
          "type": "address"
        }
      ],
      "name": "transferOwnership",
      "outputs": [],
      "stateMutability": "nonpayable",
      "type": "function"
    },
    {
      "inputs": [
        {
          "internalType": "bytes32",
          "name": "txHash",
          "type": "bytes32"
        },
        {
          "internalType": "bytes",
          "name": "proof",
          "type": "bytes"
        }
      ],
      "name": "verifyQuery",
      "outputs": [
        {
          "components": [
            {
              "internalType": "uint256",
              "name": "receipt_status",
              "type": "uint256"
            }
          ],
          "internalType": "struct ZkLightClient.VerificationResult",
          "name": "",
          "type": "tuple"
        }
      ],
      "stateMutability": "nonpayable",
      "type": "function"
    },
    {
      "inputs": [
        {
          "internalType": "bytes32",
          "name": "txHash",
          "type": "bytes32"
        }
      ],
      "name": "withdrawQuery",
      "outputs": [],
      "stateMutability": "nonpayable",
      "type": "function"
    }
  ],
  "bytecode": "0x608060405234801561001057600080fd5b50604051610ff1380380610ff183398101604081905261002f91610106565b826001600160a01b03811661005e57604051631e4fbdf760e01b81526000600482015260240160405180910390fd5b6100678161009a565b50600280546001600160a01b039384166001600160a01b0319918216179091556003805492909316911617905550610149565b600080546001600160a01b038381166001600160a01b0319831681178455604051919092169283917f8be0079c531659141344cd1fd0a4f28419497f9722a3daafe3b4186f6b6457e09190a35050565b80516001600160a01b038116811461010157600080fd5b919050565b60008060006060848603121561011b57600080fd5b610124846100ea565b9250610132602085016100ea565b9150610140604085016100ea565b90509250925092565b610e99806101586000396000f3fe6080604052600436106100dd5760003560e01c80639f4bddc81161007f578063d0ebdbe711610059578063d0ebdbe714610290578063dc6ee4be146102b0578063f2fde38b146102fc578063f56f48f21461031c57600080fd5b80639f4bddc81461022e578063b516cbd11461025d578063c6067aa61461027d57600080fd5b8063715018a6116100bb578063715018a6146101b25780637dc21de3146101c75780638a4d3fa8146101e75780638da5cb5b1461021057600080fd5b806321dfb600146100e257806332c8d35a14610158578063481c6a751461017a575b600080fd5b3480156100ee57600080fd5b5061012c6100fd366004610c8f565b60016020819052600091825260409091208054918101546002909101546001600160a01b039092169160ff1683565b604080516001600160a01b03909416845260208401929092521515908201526060015b60405180910390f35b34801561016457600080fd5b50610178610173366004610ca8565b610333565b005b34801561018657600080fd5b5060035461019a906001600160a01b031681565b6040516001600160a01b03909116815260200161014f565b3480156101be57600080fd5b5061017861035d565b3480156101d357600080fd5b5060025461019a906001600160a01b031681565b3480156101f357600080fd5b5061020266b1a2bc2ec5000081565b60405190815260200161014f565b34801561021c57600080fd5b506000546001600160a01b031661019a565b34801561023a57600080fd5b5061024e610249366004610cd8565b610371565b6040519051815260200161014f565b34801561026957600080fd5b50610178610278366004610c8f565b610792565b61017861028b366004610c8f565b610929565b34801561029c57600080fd5b506101786102ab366004610ca8565b610b78565b3480156102bc57600080fd5b5061012c6102cb366004610c8f565b60009081526001602081905260409091208054918101546002909101546001600160a01b0390921692909160ff1690565b34801561030857600080fd5b50610178610317366004610ca8565b610ba2565b34801561032857600080fd5b506102026201518081565b61033b610bf9565b600280546001600160a01b0319166001600160a01b0392909216919091179055565b610365610bf9565b61036f6000610c3f565b565b604080516020810190915260008152600084815260016020526040902080546001600160a01b0316158015906103ac5750600281015460ff16155b6104235760405162461bcd60e51b815260206004820152602860248201527f5175657279206e6f6e2d6578697374656e74206f7220616c726561647920737560448201527f636365737366756c00000000000000000000000000000000000000000000000060648201526084015b60405180910390fd5b6002546040517f010082fd0000000000000000000000000000000000000000000000000000000081526001600160a01b0390911690819063010082fd906104709088908890600401610d54565b6020604051808303816000875af115801561048f573d6000803e3d6000fd5b505050506040513d601f19601f820116820180604052508101906104b39190610d83565b6104ff5760405162461bcd60e51b815260206004820152601360248201527f566572696669636174696f6e206661696c656400000000000000000000000000604482015260640161041a565b6040517f35211a810000000000000000000000000000000000000000000000000000000081526000906001600160a01b038316906335211a81906105499089908990600401610d54565b60a0604051808303816000875af1158015610568573d6000803e3d6000fd5b505050506040513d601f19601f8201168201806040525081019061058c9190610da5565b60035460608201516040517f7692e52400000000000000000000000000000000000000000000000000000000815260048101919091529192506001600160a01b0316908190637692e52490602401602060405180830381865afa1580156105f7573d6000803e3d6000fd5b505050506040513d601f19601f8201168201806040525081019061061b9190610e23565b60000361066a5760405162461bcd60e51b815260206004820152601360248201527f496e76616c6964204d65726b6c6520726f6f7400000000000000000000000000604482015260640161041a565b81604001518260200151146106e75760405162461bcd60e51b815260206004820152603b60248201527f436f6d6d697420626c6f636b206861736820646f6573206e6f74206d6174636860448201527f2074617267657420626c6f636b206861736820696e2062617463680000000000606482015260840161041a565b604080516020810182526080840151815260028601805460ff191660011790558554915190916001600160a01b03169060009066b1a2bc2ec500009082818181858883f19350505050158015610741573d6000803e3d6000fd5b508454604051600181526001600160a01b03909116908a907f339524254eb3b94f788845be1acab7e95a0f4722135a10c74447a29e4af8faaf9060200160405180910390a398975050505050505050565b600081815260016020526040902080546001600160a01b0316331461081f5760405162461bcd60e51b815260206004820152602560248201527f4f6e6c792074686520717565727920696e69746961746f722063616e2077697460448201527f6864726177000000000000000000000000000000000000000000000000000000606482015260840161041a565b600281015460ff161561089a5760405162461bcd60e51b815260206004820152602260248201527f43616e6e6f742077697468647261772061207375636365737366756c2071756560448201527f7279000000000000000000000000000000000000000000000000000000000000606482015260840161041a565b600082815260016020819052604080832080546001600160a01b03191681559182018390556002909101805460ff191690555133919066b1a2bc2ec500009082818181858883f193505050501580156108f7573d6000803e3d6000fd5b50604051339083907fbf6bc1f2e5f1127033e8a66b214e4d4cdb1b5ebc76931194ab345ffbb586d64b90600090a35050565b66b1a2bc2ec5000034146109a55760405162461bcd60e51b815260206004820152602360248201527f496e636f727265637420616d6f756e743a20302e30352045544820726571756960448201527f7265640000000000000000000000000000000000000000000000000000000000606482015260840161041a565b600081815260016020526040902080546001600160a01b031615610adb57600281015460ff1615610a3d5760405162461bcd60e51b8152602060048201526024808201527f517565727920616c726561647920636f6d706c6574656420737563636573736660448201527f756c6c7900000000000000000000000000000000000000000000000000000000606482015260840161041a565b620151808160010154610a509190610e3c565b4211610a9e5760405162461bcd60e51b815260206004820152601760248201527f5175657279206e6f74207965742074696d6564206f7574000000000000000000604482015260640161041a565b80546040516001600160a01b039091169060009066b1a2bc2ec500009082818181858883f19350505050158015610ad9573d6000803e3d6000fd5b505b604080516060810182523380825242602080840191825260008486018181528882526001808452878320965187546001600160a01b0319166001600160a01b0390911617875593519386019390935591516002909401805460ff19169415159490941790935592519283529184917ffc56e11506c01869333a51a721ce51f1b28b9d4cc92e2af3b167c0dbc858ca09910160405180910390a35050565b610b80610bf9565b600380546001600160a01b0319166001600160a01b0392909216919091179055565b610baa610bf9565b6001600160a01b038116610bed576040517f1e4fbdf70000000000000000000000000000000000000000000000000000000081526000600482015260240161041a565b610bf681610c3f565b50565b6000546001600160a01b0316331461036f576040517f118cdaa700000000000000000000000000000000000000000000000000000000815233600482015260240161041a565b600080546001600160a01b038381166001600160a01b0319831681178455604051919092169283917f8be0079c531659141344cd1fd0a4f28419497f9722a3daafe3b4186f6b6457e09190a35050565b600060208284031215610ca157600080fd5b5035919050565b600060208284031215610cba57600080fd5b81356001600160a01b0381168114610cd157600080fd5b9392505050565b600080600060408486031215610ced57600080fd5b83359250602084013567ffffffffffffffff80821115610d0c57600080fd5b818601915086601f830112610d2057600080fd5b813581811115610d2f57600080fd5b876020828501011115610d4157600080fd5b6020830194508093505050509250925092565b60208152816020820152818360408301376000818301604090810191909152601f909201601f19160101919050565b600060208284031215610d9557600080fd5b81518015158114610cd157600080fd5b600060a08284031215610db757600080fd5b60405160a0810181811067ffffffffffffffff82111715610de857634e487b7160e01b600052604160045260246000fd5b806040525082518152602083015160208201526040830151604082015260608301516060820152608083015160808201528091505092915050565b600060208284031215610e3557600080fd5b5051919050565b80820180821115610e5d57634e487b7160e01b600052601160045260246000fd5b9291505056fea264697066735822122081d2290f3b106976a1c78c135f601968e5db1cacddb9914ab6b613f51da3e59164736f6c63430008180033",
  "linkReferences": {},
  "deployedLinkReferences": {}
}